{
  "_format": "hh-sol-artifact-1",
  "contractName": "Marketplace",
  "sourceName": "contracts/Marketplace.sol",
  "abi": [
    {
      "inputs": [
        {
          "internalType": "address",
          "name": "_nftContract",
          "type": "address"
        }
      ],
      "stateMutability": "nonpayable",
      "type": "constructor"
    },
    {
      "anonymous": false,
      "inputs": [
        {
          "indexed": true,
          "internalType": "uint256",
          "name": "itemId",
          "type": "uint256"
        },
        {
          "indexed": true,
          "internalType": "uint256",
          "name": "tokenId",
          "type": "uint256"
        },
        {
          "indexed": false,
          "internalType": "address",
          "name": "owner",
          "type": "address"
        },
        {
          "indexed": false,
          "internalType": "address",
          "name": "royalOwner",
          "type": "address"
        },
        {
          "indexed": false,
          "internalType": "uint256",
          "name": "amount",
          "type": "uint256"
        }
      ],
      "name": "tokenBought",
      "type": "event"
    },
    {
      "anonymous": false,
      "inputs": [
        {
          "indexed": true,
          "internalType": "uint256",
          "name": "itemId",
          "type": "uint256"
        },
        {
          "indexed": true,
          "internalType": "uint256",
          "name": "tokenId",
          "type": "uint256"
        },
        {
          "indexed": false,
          "internalType": "address",
          "name": "nftContract",
          "type": "address"
        },
        {
          "indexed": false,
          "internalType": "address",
          "name": "owner",
          "type": "address"
        },
        {
          "indexed": false,
          "internalType": "address",
          "name": "seller",
          "type": "address"
        },
        {
          "indexed": false,
          "internalType": "address",
          "name": "royalOwner",
          "type": "address"
        },
        {
          "indexed": false,
          "internalType": "uint256",
          "name": "price",
          "type": "uint256"
        },
        {
          "indexed": false,
          "internalType": "uint256",
          "name": "amount",
          "type": "uint256"
        }
      ],
      "name": "tokenOnSale",
      "type": "event"
    },
    {
      "inputs": [
        {
          "internalType": "uint256",
          "name": "_itemId",
          "type": "uint256"
        },
        {
          "internalType": "uint256",
          "name": "_amount",
          "type": "uint256"
        },
        {
          "internalType": "uint256",
          "name": "_tokenId",
          "type": "uint256"
        }
      ],
      "name": "buyToken",
      "outputs": [],
      "stateMutability": "payable",
      "type": "function"
    },
    {
      "inputs": [],
      "name": "discountRate",
      "outputs": [
        {
          "internalType": "uint256",
          "name": "",
          "type": "uint256"
        }
      ],
      "stateMutability": "view",
      "type": "function"
    },
    {
      "inputs": [],
      "name": "endingAt",
      "outputs": [
        {
          "internalType": "uint256",
          "name": "",
          "type": "uint256"
        }
      ],
      "stateMutability": "view",
      "type": "function"
    },
    {
      "inputs": [
        {
          "internalType": "uint256",
          "name": "",
          "type": "uint256"
        },
        {
          "internalType": "uint256",
          "name": "",
          "type": "uint256"
        }
      ],
      "name": "idItem",
      "outputs": [
        {
          "internalType": "uint256",
          "name": "itemId",
          "type": "uint256"
        },
        {
          "internalType": "contract IERC1155",
          "name": "nft",
          "type": "address"
        },
        {
          "internalType": "uint256",
          "name": "tokenId",
          "type": "uint256"
        },
        {
          "internalType": "address payable",
          "name": "seller",
          "type": "address"
        },
        {
          "internalType": "address payable",
          "name": "owner",
          "type": "address"
        },
        {
          "internalType": "address payable",
          "name": "royalOwner",
          "type": "address"
        },
        {
          "internalType": "uint256",
          "name": "price",
          "type": "uint256"
        },
        {
          "internalType": "bool",
          "name": "onSale",
          "type": "bool"
        }
      ],
      "stateMutability": "view",
      "type": "function"
    },
    {
      "inputs": [
        {
          "internalType": "address",
          "name": "",
          "type": "address"
        },
        {
          "internalType": "address",
          "name": "",
          "type": "address"
        },
        {
          "internalType": "uint256[]",
          "name": "",
          "type": "uint256[]"
        },
        {
          "internalType": "uint256[]",
          "name": "",
          "type": "uint256[]"
        },
        {
          "internalType": "bytes",
          "name": "",
          "type": "bytes"
        }
      ],
      "name": "onERC1155BatchReceived",
      "outputs": [
        {
          "internalType": "bytes4",
          "name": "",
          "type": "bytes4"
        }
      ],
      "stateMutability": "nonpayable",
      "type": "function"
    },
    {
      "inputs": [
        {
          "internalType": "address",
          "name": "",
          "type": "address"
        },
        {
          "internalType": "address",
          "name": "",
          "type": "address"
        },
        {
          "internalType": "uint256",
          "name": "",
          "type": "uint256"
        },
        {
          "internalType": "uint256",
          "name": "",
          "type": "uint256"
        },
        {
          "internalType": "bytes",
          "name": "",
          "type": "bytes"
        }
      ],
      "name": "onERC1155Received",
      "outputs": [
        {
          "internalType": "bytes4",
          "name": "",
          "type": "bytes4"
        }
      ],
      "stateMutability": "nonpayable",
      "type": "function"
    },
    {
      "inputs": [
        {
          "internalType": "uint256",
          "name": "_tokenId",
          "type": "uint256"
        },
        {
          "internalType": "uint256",
          "name": "_amount",
          "type": "uint256"
        },
        {
          "internalType": "uint256",
          "name": "price",
          "type": "uint256"
        }
      ],
      "name": "putTokenOnSale",
      "outputs": [],
      "stateMutability": "nonpayable",
      "type": "function"
    },
    {
      "inputs": [],
      "name": "startingAt",
      "outputs": [
        {
          "internalType": "uint256",
          "name": "",
          "type": "uint256"
        }
      ],
      "stateMutability": "view",
      "type": "function"
    },
    {
      "inputs": [],
      "name": "startingPrice",
      "outputs": [
        {
          "internalType": "uint256",
          "name": "",
          "type": "uint256"
        }
      ],
      "stateMutability": "view",
      "type": "function"
    },
    {
      "inputs": [
        {
          "internalType": "bytes4",
          "name": "interfaceId",
          "type": "bytes4"
        }
      ],
      "name": "supportsInterface",
      "outputs": [
        {
          "internalType": "bool",
          "name": "",
          "type": "bool"
        }
      ],
      "stateMutability": "view",
      "type": "function"
    }
  ],
  "bytecode": "0x60806040523480156200001157600080fd5b50604051620021743803806200217483398181016040528101906200003791906200012a565b80600960006101000a81548173ffffffffffffffffffffffffffffffffffffffff021916908373ffffffffffffffffffffffffffffffffffffffff16021790555080600760006101000a81548173ffffffffffffffffffffffffffffffffffffffff021916908373ffffffffffffffffffffffffffffffffffffffff160217905550506200015c565b600080fd5b600073ffffffffffffffffffffffffffffffffffffffff82169050919050565b6000620000f282620000c5565b9050919050565b6200010481620000e5565b81146200011057600080fd5b50565b6000815190506200012481620000f9565b92915050565b600060208284031215620001435762000142620000c0565b5b6000620001538482850162000113565b91505092915050565b612008806200016c6000396000f3fe6080604052600436106100915760003560e01c8063dccd431511610059578063dccd43151461018f578063de2d554b146101ba578063e6c0e6d5146101d6578063f23a6e6114610201578063fa67e9a51461023e57610091565b806301ffc9a71461009657806365763ba0146100d3578063bc197c81146100fc578063c23b498814610139578063d6fbf20214610164575b600080fd5b3480156100a257600080fd5b506100bd60048036038101906100b891906113db565b610282565b6040516100ca9190611423565b60405180910390f35b3480156100df57600080fd5b506100fa60048036038101906100f59190611474565b6102fc565b005b34801561010857600080fd5b50610123600480360381019061011e9190611733565b610957565b6040516101309190611811565b60405180910390f35b34801561014557600080fd5b5061014e61096c565b60405161015b919061183b565b60405180910390f35b34801561017057600080fd5b50610179610972565b604051610186919061183b565b60405180910390f35b34801561019b57600080fd5b506101a4610978565b6040516101b1919061183b565b60405180910390f35b6101d460048036038101906101cf9190611474565b61097e565b005b3480156101e257600080fd5b506101eb6111e4565b6040516101f8919061183b565b60405180910390f35b34801561020d57600080fd5b5061022860048036038101906102239190611856565b6111ea565b6040516102359190611811565b60405180910390f35b34801561024a57600080fd5b50610265600480360381019061026091906118ed565b6111ff565b6040516102799897969594939291906119ad565b60405180910390f35b60007f4e2312e0000000000000000000000000000000000000000000000000000000007bffffffffffffffffffffffffffffffffffffffffffffffffffffffff1916827bffffffffffffffffffffffffffffffffffffffffffffffffffffffff191614806102f557506102f4826112e1565b5b9050919050565b6000811161033f576040517f08c379a000000000000000000000000000000000000000000000000000000000815260040161033690611a88565b60405180910390fd5b610349600061134b565b60006103556000611361565b9050600960009054906101000a900473ffffffffffffffffffffffffffffffffffffffff1673ffffffffffffffffffffffffffffffffffffffff16632aa3115a856040518263ffffffff1660e01b81526004016103b2919061183b565b602060405180830381865afa1580156103cf573d6000803e3d6000fd5b505050506040513d601f19601f820116820180604052508101906103f39190611abd565b73ffffffffffffffffffffffffffffffffffffffff163373ffffffffffffffffffffffffffffffffffffffff1614806104aa57506008600085815260200190815260200160002060006001836104499190611b19565b815260200190815260200160002060040160009054906101000a900473ffffffffffffffffffffffffffffffffffffffff1673ffffffffffffffffffffffffffffffffffffffff163373ffffffffffffffffffffffffffffffffffffffff16145b6104e9576040517f08c379a00000000000000000000000000000000000000000000000000000000081526004016104e090611b99565b60405180910390fd5b604051806101000160405280828152602001600960009054906101000a900473ffffffffffffffffffffffffffffffffffffffff1673ffffffffffffffffffffffffffffffffffffffff1681526020018581526020013373ffffffffffffffffffffffffffffffffffffffff168152602001600073ffffffffffffffffffffffffffffffffffffffff168152602001600960009054906101000a900473ffffffffffffffffffffffffffffffffffffffff1673ffffffffffffffffffffffffffffffffffffffff16632aa3115a876040518263ffffffff1660e01b81526004016105d3919061183b565b602060405180830381865afa1580156105f0573d6000803e3d6000fd5b505050506040513d601f19601f820116820180604052508101906106149190611abd565b73ffffffffffffffffffffffffffffffffffffffff168152602001838152602001600115158152506008600086815260200190815260200160002060008381526020019081526020016000206000820151816000015560208201518160010160006101000a81548173ffffffffffffffffffffffffffffffffffffffff021916908373ffffffffffffffffffffffffffffffffffffffff1602179055506040820151816002015560608201518160030160006101000a81548173ffffffffffffffffffffffffffffffffffffffff021916908373ffffffffffffffffffffffffffffffffffffffff16021790555060808201518160040160006101000a81548173ffffffffffffffffffffffffffffffffffffffff021916908373ffffffffffffffffffffffffffffffffffffffff16021790555060a08201518160050160006101000a81548173ffffffffffffffffffffffffffffffffffffffff021916908373ffffffffffffffffffffffffffffffffffffffff16021790555060c0820151816006015560e08201518160070160006101000a81548160ff021916908315150217905550905050600960009054906101000a900473ffffffffffffffffffffffffffffffffffffffff1673ffffffffffffffffffffffffffffffffffffffff1663f242432a333087876040518563ffffffff1660e01b815260040161081e9493929190611bff565b600060405180830381600087803b15801561083857600080fd5b505af115801561084c573d6000803e3d6000fd5b5050505083817ff6736f5619785edaa3b447a39d98c7f7a01c02a015e5bebde5c76cf37522a019600760009054906101000a900473ffffffffffffffffffffffffffffffffffffffff16600033600960009054906101000a900473ffffffffffffffffffffffffffffffffffffffff1673ffffffffffffffffffffffffffffffffffffffff16632aa3115a8b6040518263ffffffff1660e01b81526004016108f4919061183b565b602060405180830381865afa158015610911573d6000803e3d6000fd5b505050506040513d601f19601f820116820180604052508101906109359190611abd565b888a60405161094996959493929190611c57565b60405180910390a350505050565b600063bc197c8160e01b905095945050505050565b60045481565b60065481565b60035481565b600060086000838152602001908152602001600020600085815260200190815260200160002060405180610100016040529081600082015481526020016001820160009054906101000a900473ffffffffffffffffffffffffffffffffffffffff1673ffffffffffffffffffffffffffffffffffffffff1673ffffffffffffffffffffffffffffffffffffffff168152602001600282015481526020016003820160009054906101000a900473ffffffffffffffffffffffffffffffffffffffff1673ffffffffffffffffffffffffffffffffffffffff1673ffffffffffffffffffffffffffffffffffffffff1681526020016004820160009054906101000a900473ffffffffffffffffffffffffffffffffffffffff1673ffffffffffffffffffffffffffffffffffffffff1673ffffffffffffffffffffffffffffffffffffffff1681526020016005820160009054906101000a900473ffffffffffffffffffffffffffffffffffffffff1673ffffffffffffffffffffffffffffffffffffffff1673ffffffffffffffffffffffffffffffffffffffff168152602001600682015481526020016007820160009054906101000a900460ff16151515158152505090506000816000015111610b8a576040517f08c379a0000000000000000000000000000000000000000000000000000000008152600401610b8190611d04565b60405180910390fd5b828160c00151610b9a9190611d24565b3414610bdb576040517f08c379a0000000000000000000000000000000000000000000000000000000008152600401610bd290611db2565b60405180910390fd5b600960009054906101000a900473ffffffffffffffffffffffffffffffffffffffff1673ffffffffffffffffffffffffffffffffffffffff1662fdd58e30866040518363ffffffff1660e01b8152600401610c37929190611dd2565b602060405180830381865afa158015610c54573d6000803e3d6000fd5b505050506040513d601f19601f82011682018060405250810190610c789190611e10565b831115610cba576040517f08c379a0000000000000000000000000000000000000000000000000000000008152600401610cb190611eaf565b60405180910390fd5b600960009054906101000a900473ffffffffffffffffffffffffffffffffffffffff1673ffffffffffffffffffffffffffffffffffffffff16632aa3115a836040518263ffffffff1660e01b8152600401610d15919061183b565b602060405180830381865afa158015610d32573d6000803e3d6000fd5b505050506040513d601f19601f82011682018060405250810190610d569190611abd565b73ffffffffffffffffffffffffffffffffffffffff163373ffffffffffffffffffffffffffffffffffffffff16141580610e0f5750600860008381526020019081526020016000206000600186610dad9190611b19565b815260200190815260200160002060040160009054906101000a900473ffffffffffffffffffffffffffffffffffffffff1673ffffffffffffffffffffffffffffffffffffffff163373ffffffffffffffffffffffffffffffffffffffff1614155b610e4e576040517f08c379a0000000000000000000000000000000000000000000000000000000008152600401610e4590611f1b565b60405180910390fd5b6000600960009054906101000a900473ffffffffffffffffffffffffffffffffffffffff1673ffffffffffffffffffffffffffffffffffffffff16633d27276c846040518263ffffffff1660e01b8152600401610eab919061183b565b602060405180830381865afa158015610ec8573d6000803e3d6000fd5b505050506040513d601f19601f82011682018060405250810190610eec9190611e10565b90506000606485838560c00151610f039190611d24565b610f0d9190611d24565b610f179190611f6a565b90508260a0015173ffffffffffffffffffffffffffffffffffffffff166108fc829081150290604051600060405180830381858888f19350505050158015610f63573d6000803e3d6000fd5b50826060015173ffffffffffffffffffffffffffffffffffffffff166108fc828560c00151610f929190611b19565b9081150290604051600060405180830381858888f19350505050158015610fbd573d6000803e3d6000fd5b50826020015173ffffffffffffffffffffffffffffffffffffffff1663f242432a30338660400151896040518563ffffffff1660e01b81526004016110059493929190611bff565b600060405180830381600087803b15801561101f57600080fd5b505af1158015611033573d6000803e3d6000fd5b505050503360086000868152602001908152602001600020600088815260200190815260200160002060040160006101000a81548173ffffffffffffffffffffffffffffffffffffffff021916908373ffffffffffffffffffffffffffffffffffffffff160217905550600060086000868152602001908152602001600020600088815260200190815260200160002060030160006101000a81548173ffffffffffffffffffffffffffffffffffffffff021916908373ffffffffffffffffffffffffffffffffffffffff16021790555083867fcf17e32bae60b1bcc750000cfa4da92c8e2e32de2a84d7876352321e2f43dd6833600960009054906101000a900473ffffffffffffffffffffffffffffffffffffffff1673ffffffffffffffffffffffffffffffffffffffff16632aa3115a896040518263ffffffff1660e01b8152600401611183919061183b565b602060405180830381865afa1580156111a0573d6000803e3d6000fd5b505050506040513d601f19601f820116820180604052508101906111c49190611abd565b896040516111d493929190611f9b565b60405180910390a3505050505050565b60055481565b600063f23a6e6160e01b905095945050505050565b6008602052816000526040600020602052806000526040600020600091509150508060000154908060010160009054906101000a900473ffffffffffffffffffffffffffffffffffffffff16908060020154908060030160009054906101000a900473ffffffffffffffffffffffffffffffffffffffff16908060040160009054906101000a900473ffffffffffffffffffffffffffffffffffffffff16908060050160009054906101000a900473ffffffffffffffffffffffffffffffffffffffff16908060060154908060070160009054906101000a900460ff16905088565b60007f01ffc9a7000000000000000000000000000000000000000000000000000000007bffffffffffffffffffffffffffffffffffffffffffffffffffffffff1916827bffffffffffffffffffffffffffffffffffffffffffffffffffffffff1916149050919050565b6001816000016000828254019250508190555050565b600081600001549050919050565b6000604051905090565b600080fd5b600080fd5b60007fffffffff0000000000000000000000000000000000000000000000000000000082169050919050565b6113b881611383565b81146113c357600080fd5b50565b6000813590506113d5816113af565b92915050565b6000602082840312156113f1576113f0611379565b5b60006113ff848285016113c6565b91505092915050565b60008115159050919050565b61141d81611408565b82525050565b60006020820190506114386000830184611414565b92915050565b6000819050919050565b6114518161143e565b811461145c57600080fd5b50565b60008135905061146e81611448565b92915050565b60008060006060848603121561148d5761148c611379565b5b600061149b8682870161145f565b93505060206114ac8682870161145f565b92505060406114bd8682870161145f565b9150509250925092565b600073ffffffffffffffffffffffffffffffffffffffff82169050919050565b60006114f2826114c7565b9050919050565b611502816114e7565b811461150d57600080fd5b50565b60008135905061151f816114f9565b92915050565b600080fd5b6000601f19601f8301169050919050565b7f4e487b7100000000000000000000000000000000000000000000000000000000600052604160045260246000fd5b6115738261152a565b810181811067ffffffffffffffff821117156115925761159161153b565b5b80604052505050565b60006115a561136f565b90506115b1828261156a565b919050565b600067ffffffffffffffff8211156115d1576115d061153b565b5b602082029050602081019050919050565b600080fd5b60006115fa6115f5846115b6565b61159b565b9050808382526020820190506020840283018581111561161d5761161c6115e2565b5b835b818110156116465780611632888261145f565b84526020840193505060208101905061161f565b5050509392505050565b600082601f83011261166557611664611525565b5b81356116758482602086016115e7565b91505092915050565b600080fd5b600067ffffffffffffffff82111561169e5761169d61153b565b5b6116a78261152a565b9050602081019050919050565b82818337600083830152505050565b60006116d66116d184611683565b61159b565b9050828152602081018484840111156116f2576116f161167e565b5b6116fd8482856116b4565b509392505050565b600082601f83011261171a57611719611525565b5b813561172a8482602086016116c3565b91505092915050565b600080600080600060a0868803121561174f5761174e611379565b5b600061175d88828901611510565b955050602061176e88828901611510565b945050604086013567ffffffffffffffff81111561178f5761178e61137e565b5b61179b88828901611650565b935050606086013567ffffffffffffffff8111156117bc576117bb61137e565b5b6117c888828901611650565b925050608086013567ffffffffffffffff8111156117e9576117e861137e565b5b6117f588828901611705565b9150509295509295909350565b61180b81611383565b82525050565b60006020820190506118266000830184611802565b92915050565b6118358161143e565b82525050565b6000602082019050611850600083018461182c565b92915050565b600080600080600060a0868803121561187257611871611379565b5b600061188088828901611510565b955050602061189188828901611510565b94505060406118a28882890161145f565b93505060606118b38882890161145f565b925050608086013567ffffffffffffffff8111156118d4576118d361137e565b5b6118e088828901611705565b9150509295509295909350565b6000806040838503121561190457611903611379565b5b60006119128582860161145f565b92505060206119238582860161145f565b9150509250929050565b6000819050919050565b600061195261194d611948846114c7565b61192d565b6114c7565b9050919050565b600061196482611937565b9050919050565b600061197682611959565b9050919050565b6119868161196b565b82525050565b6000611997826114c7565b9050919050565b6119a78161198c565b82525050565b6000610100820190506119c3600083018b61182c565b6119d0602083018a61197d565b6119dd604083018961182c565b6119ea606083018861199e565b6119f7608083018761199e565b611a0460a083018661199e565b611a1160c083018561182c565b611a1e60e0830184611414565b9998505050505050505050565b600082825260208201905092915050565b7f5052696365206d7573742062652067726561746572207468616e203000000000600082015250565b6000611a72601c83611a2b565b9150611a7d82611a3c565b602082019050919050565b60006020820190508181036000830152611aa181611a65565b9050919050565b600081519050611ab7816114f9565b92915050565b600060208284031215611ad357611ad2611379565b5b6000611ae184828501611aa8565b91505092915050565b7f4e487b7100000000000000000000000000000000000000000000000000000000600052601160045260246000fd5b6000611b248261143e565b9150611b2f8361143e565b9250828203905081811115611b4757611b46611aea565b5b92915050565b7f596f75206d75737420626520746865206f776e6572206f6620746f6b656e0000600082015250565b6000611b83601e83611a2b565b9150611b8e82611b4d565b602082019050919050565b60006020820190508181036000830152611bb281611b76565b9050919050565b611bc2816114e7565b82525050565b600082825260208201905092915050565b50565b6000611be9600083611bc8565b9150611bf482611bd9565b600082019050919050565b600060a082019050611c146000830187611bb9565b611c216020830186611bb9565b611c2e604083018561182c565b611c3b606083018461182c565b8181036080830152611c4c81611bdc565b905095945050505050565b600060c082019050611c6c6000830189611bb9565b611c796020830188611bb9565b611c866040830187611bb9565b611c936060830186611bb9565b611ca0608083018561182c565b611cad60a083018461182c565b979650505050505050565b7f4974656d206e6f74206c69737465640000000000000000000000000000000000600082015250565b6000611cee600f83611a2b565b9150611cf982611cb8565b602082019050919050565b60006020820190508181036000830152611d1d81611ce1565b9050919050565b6000611d2f8261143e565b9150611d3a8361143e565b9250828202611d488161143e565b91508282048414831517611d5f57611d5e611aea565b5b5092915050565b7f4e6f7420656e6f756768206d6f6e657920746f20627579000000000000000000600082015250565b6000611d9c601783611a2b565b9150611da782611d66565b602082019050919050565b60006020820190508181036000830152611dcb81611d8f565b9050919050565b6000604082019050611de76000830185611bb9565b611df4602083018461182c565b9392505050565b600081519050611e0a81611448565b92915050565b600060208284031215611e2657611e25611379565b5b6000611e3484828501611dfb565b91505092915050565b7f4e6f7420656e6f7567682062616c616e636520696e206d61726b6574706c616360008201527f6520636f6e747261637400000000000000000000000000000000000000000000602082015250565b6000611e99602a83611a2b565b9150611ea482611e3d565b604082019050919050565b60006020820190508181036000830152611ec881611e8c565b9050919050565b7f596f752061726520746865206f776e6572206f6620746f6b656e000000000000600082015250565b6000611f05601a83611a2b565b9150611f1082611ecf565b602082019050919050565b60006020820190508181036000830152611f3481611ef8565b9050919050565b7f4e487b7100000000000000000000000000000000000000000000000000000000600052601260045260246000fd5b6000611f758261143e565b9150611f808361143e565b925082611f9057611f8f611f3b565b5b828204905092915050565b6000606082019050611fb06000830186611bb9565b611fbd6020830185611bb9565b611fca604083018461182c565b94935050505056fea2646970667358221220f93d1bf825127a4c7b62d37cfcef5ce970e80606c6fff5310e5a4c6f747f36e364736f6c63430008120033",
  "linkReferences": {},
  "deployedLinkReferences": {}
}