{
  "_format": "hh-sol-artifact-1",
  "contractName": "VE3NFT",
  "sourceName": "contracts/VE3NFT.sol",
  "abi": [
    {
      "inputs": [],
      "stateMutability": "nonpayable",
      "type": "constructor"
    },
    {
      "anonymous": false,
      "inputs": [
        {
          "indexed": true,
          "internalType": "address",
          "name": "account",
          "type": "address"
        },
        {
          "indexed": true,
          "internalType": "address",
          "name": "operator",
          "type": "address"
        },
        {
          "indexed": false,
          "internalType": "bool",
          "name": "approved",
          "type": "bool"
        }
      ],
      "name": "ApprovalForAll",
      "type": "event"
    },
    {
      "anonymous": false,
      "inputs": [
        {
          "indexed": false,
          "internalType": "address",
          "name": "account",
          "type": "address"
        }
      ],
      "name": "Paused",
      "type": "event"
    },
    {
      "anonymous": false,
      "inputs": [
        {
          "indexed": true,
          "internalType": "address",
          "name": "operator",
          "type": "address"
        },
        {
          "indexed": true,
          "internalType": "address",
          "name": "from",
          "type": "address"
        },
        {
          "indexed": true,
          "internalType": "address",
          "name": "to",
          "type": "address"
        },
        {
          "indexed": false,
          "internalType": "uint256[]",
          "name": "ids",
          "type": "uint256[]"
        },
        {
          "indexed": false,
          "internalType": "uint256[]",
          "name": "values",
          "type": "uint256[]"
        }
      ],
      "name": "TransferBatch",
      "type": "event"
    },
    {
      "anonymous": false,
      "inputs": [
        {
          "indexed": true,
          "internalType": "address",
          "name": "operator",
          "type": "address"
        },
        {
          "indexed": true,
          "internalType": "address",
          "name": "from",
          "type": "address"
        },
        {
          "indexed": true,
          "internalType": "address",
          "name": "to",
          "type": "address"
        },
        {
          "indexed": false,
          "internalType": "uint256",
          "name": "id",
          "type": "uint256"
        },
        {
          "indexed": false,
          "internalType": "uint256",
          "name": "value",
          "type": "uint256"
        }
      ],
      "name": "TransferSingle",
      "type": "event"
    },
    {
      "anonymous": false,
      "inputs": [
        {
          "indexed": false,
          "internalType": "string",
          "name": "value",
          "type": "string"
        },
        {
          "indexed": true,
          "internalType": "uint256",
          "name": "id",
          "type": "uint256"
        }
      ],
      "name": "URI",
      "type": "event"
    },
    {
      "anonymous": false,
      "inputs": [
        {
          "indexed": false,
          "internalType": "address",
          "name": "account",
          "type": "address"
        }
      ],
      "name": "Unpaused",
      "type": "event"
    },
    {
      "anonymous": false,
      "inputs": [
        {
          "indexed": false,
          "internalType": "uint256",
          "name": "supply",
          "type": "uint256"
        },
        {
          "indexed": false,
          "internalType": "uint256",
          "name": "royalPrice",
          "type": "uint256"
        },
        {
          "indexed": false,
          "internalType": "address",
          "name": "marketplace",
          "type": "address"
        },
        {
          "indexed": false,
          "internalType": "address",
          "name": "royalOwner",
          "type": "address"
        },
        {
          "indexed": false,
          "internalType": "uint256",
          "name": "tokenId",
          "type": "uint256"
        },
        {
          "indexed": false,
          "internalType": "string",
          "name": "uri",
          "type": "string"
        }
      ],
      "name": "minted",
      "type": "event"
    },
    {
      "inputs": [
        {
          "internalType": "address",
          "name": "account",
          "type": "address"
        },
        {
          "internalType": "uint256",
          "name": "id",
          "type": "uint256"
        }
      ],
      "name": "balanceOf",
      "outputs": [
        {
          "internalType": "uint256",
          "name": "",
          "type": "uint256"
        }
      ],
      "stateMutability": "view",
      "type": "function"
    },
    {
      "inputs": [
        {
          "internalType": "address[]",
          "name": "accounts",
          "type": "address[]"
        },
        {
          "internalType": "uint256[]",
          "name": "ids",
          "type": "uint256[]"
        }
      ],
      "name": "balanceOfBatch",
      "outputs": [
        {
          "internalType": "uint256[]",
          "name": "",
          "type": "uint256[]"
        }
      ],
      "stateMutability": "view",
      "type": "function"
    },
    {
      "inputs": [
        {
          "internalType": "uint256",
          "name": "id",
          "type": "uint256"
        }
      ],
      "name": "exists",
      "outputs": [
        {
          "internalType": "bool",
          "name": "",
          "type": "bool"
        }
      ],
      "stateMutability": "view",
      "type": "function"
    },
    {
      "inputs": [
        {
          "internalType": "uint256",
          "name": "tokenId",
          "type": "uint256"
        }
      ],
      "name": "getRoyalOwner",
      "outputs": [
        {
          "internalType": "address",
          "name": "",
          "type": "address"
        }
      ],
      "stateMutability": "view",
      "type": "function"
    },
    {
      "inputs": [
        {
          "internalType": "uint256",
          "name": "tokenId",
          "type": "uint256"
        }
      ],
      "name": "getRoyalPrice",
      "outputs": [
        {
          "internalType": "uint256",
          "name": "",
          "type": "uint256"
        }
      ],
      "stateMutability": "view",
      "type": "function"
    },
    {
      "inputs": [
        {
          "internalType": "uint256",
          "name": "tokenId",
          "type": "uint256"
        }
      ],
      "name": "getTotalToken",
      "outputs": [
        {
          "internalType": "uint256",
          "name": "",
          "type": "uint256"
        }
      ],
      "stateMutability": "view",
      "type": "function"
    },
    {
      "inputs": [
        {
          "internalType": "address",
          "name": "account",
          "type": "address"
        },
        {
          "internalType": "address",
          "name": "operator",
          "type": "address"
        }
      ],
      "name": "isApprovedForAll",
      "outputs": [
        {
          "internalType": "bool",
          "name": "",
          "type": "bool"
        }
      ],
      "stateMutability": "view",
      "type": "function"
    },
    {
      "inputs": [
        {
          "internalType": "uint256",
          "name": "_supply",
          "type": "uint256"
        },
        {
          "internalType": "uint256",
          "name": "_royalPrice",
          "type": "uint256"
        },
        {
          "internalType": "address",
          "name": "marketplace",
          "type": "address"
        },
        {
          "internalType": "string",
          "name": "_uri",
          "type": "string"
        }
      ],
      "name": "mintTokens",
      "outputs": [],
      "stateMutability": "nonpayable",
      "type": "function"
    },
    {
      "inputs": [],
      "name": "paused",
      "outputs": [
        {
          "internalType": "bool",
          "name": "",
          "type": "bool"
        }
      ],
      "stateMutability": "view",
      "type": "function"
    },
    {
      "inputs": [
        {
          "internalType": "uint256",
          "name": "tokenId",
          "type": "uint256"
        }
      ],
      "name": "royalOwners",
      "outputs": [
        {
          "internalType": "address",
          "name": "",
          "type": "address"
        }
      ],
      "stateMutability": "view",
      "type": "function"
    },
    {
      "inputs": [
        {
          "internalType": "address",
          "name": "from",
          "type": "address"
        },
        {
          "internalType": "address",
          "name": "to",
          "type": "address"
        },
        {
          "internalType": "uint256[]",
          "name": "ids",
          "type": "uint256[]"
        },
        {
          "internalType": "uint256[]",
          "name": "amounts",
          "type": "uint256[]"
        },
        {
          "internalType": "bytes",
          "name": "data",
          "type": "bytes"
        }
      ],
      "name": "safeBatchTransferFrom",
      "outputs": [],
      "stateMutability": "nonpayable",
      "type": "function"
    },
    {
      "inputs": [
        {
          "internalType": "address",
          "name": "from",
          "type": "address"
        },
        {
          "internalType": "address",
          "name": "to",
          "type": "address"
        },
        {
          "internalType": "uint256",
          "name": "id",
          "type": "uint256"
        },
        {
          "internalType": "uint256",
          "name": "amount",
          "type": "uint256"
        },
        {
          "internalType": "bytes",
          "name": "data",
          "type": "bytes"
        }
      ],
      "name": "safeTransferFrom",
      "outputs": [],
      "stateMutability": "nonpayable",
      "type": "function"
    },
    {
      "inputs": [
        {
          "internalType": "address",
          "name": "operator",
          "type": "address"
        },
        {
          "internalType": "bool",
          "name": "approved",
          "type": "bool"
        }
      ],
      "name": "setApprovalForAll",
      "outputs": [],
      "stateMutability": "nonpayable",
      "type": "function"
    },
    {
      "inputs": [
        {
          "internalType": "bytes4",
          "name": "interfaceId",
          "type": "bytes4"
        }
      ],
      "name": "supportsInterface",
      "outputs": [
        {
          "internalType": "bool",
          "name": "",
          "type": "bool"
        }
      ],
      "stateMutability": "view",
      "type": "function"
    },
    {
      "inputs": [
        {
          "internalType": "uint256",
          "name": "id",
          "type": "uint256"
        }
      ],
      "name": "totalSupply",
      "outputs": [
        {
          "internalType": "uint256",
          "name": "",
          "type": "uint256"
        }
      ],
      "stateMutability": "view",
      "type": "function"
    },
    {
      "inputs": [
        {
          "internalType": "uint256",
          "name": "",
          "type": "uint256"
        }
      ],
      "name": "totalTokens",
      "outputs": [
        {
          "internalType": "uint256",
          "name": "",
          "type": "uint256"
        }
      ],
      "stateMutability": "view",
      "type": "function"
    },
    {
      "inputs": [
        {
          "internalType": "uint256",
          "name": "_id",
          "type": "uint256"
        }
      ],
      "name": "uri",
      "outputs": [
        {
          "internalType": "string",
          "name": "",
          "type": "string"
        }
      ],
      "stateMutability": "view",
      "type": "function"
    }
  ],
  "bytecode": "0x60806040526040518060800160405280604481526020016200389160449139600690816200002e919062000391565b503480156200003c57600080fd5b50600680546200004c9062000180565b80601f01602080910402602001604051908101604052809291908181526020018280546200007a9062000180565b8015620000cb5780601f106200009f57610100808354040283529160200191620000cb565b820191906000526020600020905b815481529060010190602001808311620000ad57829003601f168201915b505050505060008060006101000a81548160ff021916908315150217905550620000fb816200010260201b60201c565b5062000478565b806003908162000113919062000391565b5050565b600081519050919050565b7f4e487b7100000000000000000000000000000000000000000000000000000000600052604160045260246000fd5b7f4e487b7100000000000000000000000000000000000000000000000000000000600052602260045260246000fd5b600060028204905060018216806200019957607f821691505b602082108103620001af57620001ae62000151565b5b50919050565b60008190508160005260206000209050919050565b60006020601f8301049050919050565b600082821b905092915050565b600060088302620002197fffffffffffffffffffffffffffffffffffffffffffffffffffffffffffffffff82620001da565b620002258683620001da565b95508019841693508086168417925050509392505050565b6000819050919050565b6000819050919050565b6000620002726200026c62000266846200023d565b62000247565b6200023d565b9050919050565b6000819050919050565b6200028e8362000251565b620002a66200029d8262000279565b848454620001e7565b825550505050565b600090565b620002bd620002ae565b620002ca81848462000283565b505050565b5b81811015620002f257620002e6600082620002b3565b600181019050620002d0565b5050565b601f82111562000341576200030b81620001b5565b6200031684620001ca565b8101602085101562000326578190505b6200033e6200033585620001ca565b830182620002cf565b50505b505050565b600082821c905092915050565b6000620003666000198460080262000346565b1980831691505092915050565b600062000381838362000353565b9150826002028217905092915050565b6200039c8262000117565b67ffffffffffffffff811115620003b857620003b762000122565b5b620003c4825462000180565b620003d1828285620002f6565b600060209050601f831160018114620004095760008415620003f4578287015190505b62000400858262000373565b86555062000470565b601f1984166200041986620001b5565b60005b8281101562000443578489015182556001820191506020850194506020810190506200041c565b868310156200046357848901516200045f601f89168262000353565b8355505b6001600288020188555050505b505050505050565b61340980620004886000396000f3fe608060405234801561001057600080fd5b506004361061010a5760003560e01c80635c975abb116100a2578063e0005b3e11610071578063e0005b3e14610315578063e985e9c514610331578063eca096ca14610361578063f242432a14610391578063ffe6d9ba146103ad5761010a565b80635c975abb1461027b578063a22cb46514610299578063bd85b039146102b5578063c2be48a6146102e55761010a565b80632eb2c2d6116100de5780632eb2c2d6146101cf5780633d27276c146101eb5780634e1273f41461021b5780634f558e791461024b5761010a565b8062fdd58e1461010f57806301ffc9a71461013f5780630e89341c1461016f5780632aa3115a1461019f575b600080fd5b61012960048036038101906101249190611ea5565b6103dd565b6040516101369190611ef4565b60405180910390f35b61015960048036038101906101549190611f67565b6104a6565b6040516101669190611faf565b60405180910390f35b61018960048036038101906101849190611fca565b610588565b6040516101969190612087565b60405180910390f35b6101b960048036038101906101b49190611fca565b61060b565b6040516101c691906120b8565b60405180910390f35b6101e960048036038101906101e491906122d0565b610648565b005b61020560048036038101906102009190611fca565b6106e9565b6040516102129190611ef4565b60405180910390f35b61023560048036038101906102309190612462565b610750565b6040516102429190612598565b60405180910390f35b61026560048036038101906102609190611fca565b610869565b6040516102729190611faf565b60405180910390f35b61028361087d565b6040516102909190611faf565b60405180910390f35b6102b360048036038101906102ae91906125e6565b610893565b005b6102cf60048036038101906102ca9190611fca565b6108a9565b6040516102dc9190611ef4565b60405180910390f35b6102ff60048036038101906102fa9190611fca565b6108c6565b60405161030c9190611ef4565b60405180910390f35b61032f600480360381019061032a91906126c7565b6108de565b005b61034b6004803603810190610346919061274a565b610a23565b6040516103589190611faf565b60405180910390f35b61037b60048036038101906103769190611fca565b610ab7565b60405161038891906120b8565b60405180910390f35b6103ab60048036038101906103a6919061278a565b610aea565b005b6103c760048036038101906103c29190611fca565b610b8b565b6040516103d49190611ef4565b60405180910390f35b60008073ffffffffffffffffffffffffffffffffffffffff168373ffffffffffffffffffffffffffffffffffffffff160361044d576040517f08c379a000000000000000000000000000000000000000000000000000000000815260040161044490612893565b60405180910390fd5b6001600083815260200190815260200160002060008473ffffffffffffffffffffffffffffffffffffffff1673ffffffffffffffffffffffffffffffffffffffff16815260200190815260200160002054905092915050565b60007fd9b67a26000000000000000000000000000000000000000000000000000000007bffffffffffffffffffffffffffffffffffffffffffffffffffffffff1916827bffffffffffffffffffffffffffffffffffffffffffffffffffffffff1916148061057157507f0e89341c000000000000000000000000000000000000000000000000000000007bffffffffffffffffffffffffffffffffffffffffffffffffffffffff1916827bffffffffffffffffffffffffffffffffffffffffffffffffffffffff1916145b80610581575061058082610ba8565b5b9050919050565b606061059382610869565b6105d2576040517f08c379a00000000000000000000000000000000000000000000000000000000081526004016105c9906128ff565b60405180910390fd5b6105db82610c12565b6105e483610ca6565b6040516020016105f59291906129a7565b6040516020818303038152906040529050919050565b60006007600083815260200190815260200160002060009054906101000a900473ffffffffffffffffffffffffffffffffffffffff169050919050565b610650610d74565b73ffffffffffffffffffffffffffffffffffffffff168573ffffffffffffffffffffffffffffffffffffffff161480610696575061069585610690610d74565b610a23565b5b6106d5576040517f08c379a00000000000000000000000000000000000000000000000000000000081526004016106cc90612a48565b60405180910390fd5b6106e28585858585610d7c565b5050505050565b6000806106f58361060b565b90506009600084815260200190815260200160002060008273ffffffffffffffffffffffffffffffffffffffff1673ffffffffffffffffffffffffffffffffffffffff16815260200190815260200160002054915050919050565b60608151835114610796576040517f08c379a000000000000000000000000000000000000000000000000000000000815260040161078d90612ada565b60405180910390fd5b6000835167ffffffffffffffff8111156107b3576107b26120d8565b5b6040519080825280602002602001820160405280156107e15781602001602082028036833780820191505090505b50905060005b845181101561085e5761082e85828151811061080657610805612afa565b5b602002602001015185838151811061082157610820612afa565b5b60200260200101516103dd565b82828151811061084157610840612afa565b5b6020026020010181815250508061085790612b58565b90506107e7565b508091505092915050565b600080610875836108a9565b119050919050565b60008060009054906101000a900460ff16905090565b6108a561089e610d74565b83836110a0565b5050565b600060046000838152602001908152602001600020549050919050565b60086020528060005260406000206000915090505481565b6108e8600561120c565b60006108f46005611222565b905061091133828760405180602001604052806000815250611230565b336007600083815260200190815260200160002060006101000a81548173ffffffffffffffffffffffffffffffffffffffff021916908373ffffffffffffffffffffffffffffffffffffffff160217905550846008600083815260200190815260200160002081905550836009600083815260200190815260200160002060003373ffffffffffffffffffffffffffffffffffffffff1673ffffffffffffffffffffffffffffffffffffffff168152602001908152602001600020819055506109db836001610893565b7fe21355f4b618ba04aed25a9b4cdd040214ad847320b89d5b1fea2fc47e2a91f3858585338587604051610a1496959493929190612ba0565b60405180910390a15050505050565b6000600260008473ffffffffffffffffffffffffffffffffffffffff1673ffffffffffffffffffffffffffffffffffffffff16815260200190815260200160002060008373ffffffffffffffffffffffffffffffffffffffff1673ffffffffffffffffffffffffffffffffffffffff16815260200190815260200160002060009054906101000a900460ff16905092915050565b60076020528060005260406000206000915054906101000a900473ffffffffffffffffffffffffffffffffffffffff1681565b610af2610d74565b73ffffffffffffffffffffffffffffffffffffffff168573ffffffffffffffffffffffffffffffffffffffff161480610b385750610b3785610b32610d74565b610a23565b5b610b77576040517f08c379a0000000000000000000000000000000000000000000000000000000008152600401610b6e90612a48565b60405180910390fd5b610b8485858585856113e1565b5050505050565b600060086000838152602001908152602001600020549050919050565b60007f01ffc9a7000000000000000000000000000000000000000000000000000000007bffffffffffffffffffffffffffffffffffffffffffffffffffffffff1916827bffffffffffffffffffffffffffffffffffffffffffffffffffffffff1916149050919050565b606060038054610c2190612c37565b80601f0160208091040260200160405190810160405280929190818152602001828054610c4d90612c37565b8015610c9a5780601f10610c6f57610100808354040283529160200191610c9a565b820191906000526020600020905b815481529060010190602001808311610c7d57829003601f168201915b50505050509050919050565b606060006001610cb58461167f565b01905060008167ffffffffffffffff811115610cd457610cd36120d8565b5b6040519080825280601f01601f191660200182016040528015610d065781602001600182028036833780820191505090505b509050600082602001820190505b600115610d69578080600190039150507f3031323334353637383961626364656600000000000000000000000000000000600a86061a8153600a8581610d5d57610d5c612c68565b5b04945060008503610d14575b819350505050919050565b600033905090565b8151835114610dc0576040517f08c379a0000000000000000000000000000000000000000000000000000000008152600401610db790612d09565b60405180910390fd5b600073ffffffffffffffffffffffffffffffffffffffff168473ffffffffffffffffffffffffffffffffffffffff1603610e2f576040517f08c379a0000000000000000000000000000000000000000000000000000000008152600401610e2690612d9b565b60405180910390fd5b6000610e39610d74565b9050610e498187878787876117d2565b60005b8451811015610ffd576000858281518110610e6a57610e69612afa565b5b602002602001015190506000858381518110610e8957610e88612afa565b5b6020026020010151905060006001600084815260200190815260200160002060008b73ffffffffffffffffffffffffffffffffffffffff1673ffffffffffffffffffffffffffffffffffffffff16815260200190815260200160002054905081811015610f2b576040517f08c379a0000000000000000000000000000000000000000000000000000000008152600401610f2290612e2d565b60405180910390fd5b8181036001600085815260200190815260200160002060008c73ffffffffffffffffffffffffffffffffffffffff1673ffffffffffffffffffffffffffffffffffffffff16815260200190815260200160002081905550816001600085815260200190815260200160002060008b73ffffffffffffffffffffffffffffffffffffffff1673ffffffffffffffffffffffffffffffffffffffff1681526020019081526020016000206000828254610fe29190612e4d565b9250508190555050505080610ff690612b58565b9050610e4c565b508473ffffffffffffffffffffffffffffffffffffffff168673ffffffffffffffffffffffffffffffffffffffff168273ffffffffffffffffffffffffffffffffffffffff167f4a39dc06d4c0dbc64b70af90fd698a233a518aa5d07e595d983b8c0526c8f7fb8787604051611074929190612e81565b60405180910390a461108a8187878787876119a2565b6110988187878787876119aa565b505050505050565b8173ffffffffffffffffffffffffffffffffffffffff168373ffffffffffffffffffffffffffffffffffffffff160361110e576040517f08c379a000000000000000000000000000000000000000000000000000000000815260040161110590612f2a565b60405180910390fd5b80600260008573ffffffffffffffffffffffffffffffffffffffff1673ffffffffffffffffffffffffffffffffffffffff16815260200190815260200160002060008473ffffffffffffffffffffffffffffffffffffffff1673ffffffffffffffffffffffffffffffffffffffff16815260200190815260200160002060006101000a81548160ff0219169083151502179055508173ffffffffffffffffffffffffffffffffffffffff168373ffffffffffffffffffffffffffffffffffffffff167f17307eab39ab6107e8899845ad3d59bd9653f200f220920489ca2b5937696c31836040516111ff9190611faf565b60405180910390a3505050565b6001816000016000828254019250508190555050565b600081600001549050919050565b600073ffffffffffffffffffffffffffffffffffffffff168473ffffffffffffffffffffffffffffffffffffffff160361129f576040517f08c379a000000000000000000000000000000000000000000000000000000000815260040161129690612fbc565b60405180910390fd5b60006112a9610d74565b905060006112b685611b81565b905060006112c385611b81565b90506112d4836000898585896117d2565b846001600088815260200190815260200160002060008973ffffffffffffffffffffffffffffffffffffffff1673ffffffffffffffffffffffffffffffffffffffff16815260200190815260200160002060008282546113349190612e4d565b925050819055508673ffffffffffffffffffffffffffffffffffffffff16600073ffffffffffffffffffffffffffffffffffffffff168473ffffffffffffffffffffffffffffffffffffffff167fc3d58168c5ae7397731d063d5bbf3d657854427343f4c083240f7aacaa2d0f6289896040516113b2929190612fdc565b60405180910390a46113c9836000898585896119a2565b6113d883600089898989611bfb565b50505050505050565b600073ffffffffffffffffffffffffffffffffffffffff168473ffffffffffffffffffffffffffffffffffffffff1603611450576040517f08c379a000000000000000000000000000000000000000000000000000000000815260040161144790612d9b565b60405180910390fd5b600061145a610d74565b9050600061146785611b81565b9050600061147485611b81565b90506114848389898585896117d2565b60006001600088815260200190815260200160002060008a73ffffffffffffffffffffffffffffffffffffffff1673ffffffffffffffffffffffffffffffffffffffff1681526020019081526020016000205490508581101561151c576040517f08c379a000000000000000000000000000000000000000000000000000000000815260040161151390612e2d565b60405180910390fd5b8581036001600089815260200190815260200160002060008b73ffffffffffffffffffffffffffffffffffffffff1673ffffffffffffffffffffffffffffffffffffffff16815260200190815260200160002081905550856001600089815260200190815260200160002060008a73ffffffffffffffffffffffffffffffffffffffff1673ffffffffffffffffffffffffffffffffffffffff16815260200190815260200160002060008282546115d39190612e4d565b925050819055508773ffffffffffffffffffffffffffffffffffffffff168973ffffffffffffffffffffffffffffffffffffffff168573ffffffffffffffffffffffffffffffffffffffff167fc3d58168c5ae7397731d063d5bbf3d657854427343f4c083240f7aacaa2d0f628a8a604051611650929190612fdc565b60405180910390a4611666848a8a86868a6119a2565b611674848a8a8a8a8a611bfb565b505050505050505050565b600080600090507a184f03e93ff9f4daa797ed6e38ed64bf6a1f01000000000000000083106116dd577a184f03e93ff9f4daa797ed6e38ed64bf6a1f01000000000000000083816116d3576116d2612c68565b5b0492506040810190505b6d04ee2d6d415b85acef8100000000831061171a576d04ee2d6d415b85acef810000000083816117105761170f612c68565b5b0492506020810190505b662386f26fc10000831061174957662386f26fc10000838161173f5761173e612c68565b5b0492506010810190505b6305f5e1008310611772576305f5e100838161176857611767612c68565b5b0492506008810190505b612710831061179757612710838161178d5761178c612c68565b5b0492506004810190505b606483106117ba57606483816117b0576117af612c68565b5b0492506002810190505b600a83106117c9576001810190505b80915050919050565b6117e0868686868686611dd2565b600073ffffffffffffffffffffffffffffffffffffffff168573ffffffffffffffffffffffffffffffffffffffff16036118915760005b835181101561188f5782818151811061183357611832612afa565b5b60200260200101516004600086848151811061185257611851612afa565b5b6020026020010151815260200190815260200160002060008282546118779190612e4d565b925050819055508061188890612b58565b9050611817565b505b600073ffffffffffffffffffffffffffffffffffffffff168473ffffffffffffffffffffffffffffffffffffffff160361199a5760005b83518110156119985760008482815181106118e6576118e5612afa565b5b60200260200101519050600084838151811061190557611904612afa565b5b602002602001015190506000600460008481526020019081526020016000205490508181101561196a576040517f08c379a000000000000000000000000000000000000000000000000000000000815260040161196190613077565b60405180910390fd5b81810360046000858152602001908152602001600020819055505050508061199190612b58565b90506118c8565b505b505050505050565b505050505050565b6119c98473ffffffffffffffffffffffffffffffffffffffff16611dda565b15611b79578373ffffffffffffffffffffffffffffffffffffffff1663bc197c8187878686866040518663ffffffff1660e01b8152600401611a0f9594939291906130ec565b6020604051808303816000875af1925050508015611a4b57506040513d601f19601f82011682018060405250810190611a489190613169565b60015b611af057611a576131a3565b806308c379a003611ab35750611a6b6131c5565b80611a765750611ab5565b806040517f08c379a0000000000000000000000000000000000000000000000000000000008152600401611aaa9190612087565b60405180910390fd5b505b6040517f08c379a0000000000000000000000000000000000000000000000000000000008152600401611ae7906132c7565b60405180910390fd5b63bc197c8160e01b7bffffffffffffffffffffffffffffffffffffffffffffffffffffffff1916817bffffffffffffffffffffffffffffffffffffffffffffffffffffffff191614611b77576040517f08c379a0000000000000000000000000000000000000000000000000000000008152600401611b6e90613359565b60405180910390fd5b505b505050505050565b60606000600167ffffffffffffffff811115611ba057611b9f6120d8565b5b604051908082528060200260200182016040528015611bce5781602001602082028036833780820191505090505b5090508281600081518110611be657611be5612afa565b5b60200260200101818152505080915050919050565b611c1a8473ffffffffffffffffffffffffffffffffffffffff16611dda565b15611dca578373ffffffffffffffffffffffffffffffffffffffff1663f23a6e6187878686866040518663ffffffff1660e01b8152600401611c60959493929190613379565b6020604051808303816000875af1925050508015611c9c57506040513d601f19601f82011682018060405250810190611c999190613169565b60015b611d4157611ca86131a3565b806308c379a003611d045750611cbc6131c5565b80611cc75750611d06565b806040517f08c379a0000000000000000000000000000000000000000000000000000000008152600401611cfb9190612087565b60405180910390fd5b505b6040517f08c379a0000000000000000000000000000000000000000000000000000000008152600401611d38906132c7565b60405180910390fd5b63f23a6e6160e01b7bffffffffffffffffffffffffffffffffffffffffffffffffffffffff1916817bffffffffffffffffffffffffffffffffffffffffffffffffffffffff191614611dc8576040517f08c379a0000000000000000000000000000000000000000000000000000000008152600401611dbf90613359565b60405180910390fd5b505b505050505050565b505050505050565b6000808273ffffffffffffffffffffffffffffffffffffffff163b119050919050565b6000604051905090565b600080fd5b600080fd5b600073ffffffffffffffffffffffffffffffffffffffff82169050919050565b6000611e3c82611e11565b9050919050565b611e4c81611e31565b8114611e5757600080fd5b50565b600081359050611e6981611e43565b92915050565b6000819050919050565b611e8281611e6f565b8114611e8d57600080fd5b50565b600081359050611e9f81611e79565b92915050565b60008060408385031215611ebc57611ebb611e07565b5b6000611eca85828601611e5a565b9250506020611edb85828601611e90565b9150509250929050565b611eee81611e6f565b82525050565b6000602082019050611f096000830184611ee5565b92915050565b60007fffffffff0000000000000000000000000000000000000000000000000000000082169050919050565b611f4481611f0f565b8114611f4f57600080fd5b50565b600081359050611f6181611f3b565b92915050565b600060208284031215611f7d57611f7c611e07565b5b6000611f8b84828501611f52565b91505092915050565b60008115159050919050565b611fa981611f94565b82525050565b6000602082019050611fc46000830184611fa0565b92915050565b600060208284031215611fe057611fdf611e07565b5b6000611fee84828501611e90565b91505092915050565b600081519050919050565b600082825260208201905092915050565b60005b83811015612031578082015181840152602081019050612016565b60008484015250505050565b6000601f19601f8301169050919050565b600061205982611ff7565b6120638185612002565b9350612073818560208601612013565b61207c8161203d565b840191505092915050565b600060208201905081810360008301526120a1818461204e565b905092915050565b6120b281611e31565b82525050565b60006020820190506120cd60008301846120a9565b92915050565b600080fd5b7f4e487b7100000000000000000000000000000000000000000000000000000000600052604160045260246000fd5b6121108261203d565b810181811067ffffffffffffffff8211171561212f5761212e6120d8565b5b80604052505050565b6000612142611dfd565b905061214e8282612107565b919050565b600067ffffffffffffffff82111561216e5761216d6120d8565b5b602082029050602081019050919050565b600080fd5b600061219761219284612153565b612138565b905080838252602082019050602084028301858111156121ba576121b961217f565b5b835b818110156121e357806121cf8882611e90565b8452602084019350506020810190506121bc565b5050509392505050565b600082601f830112612202576122016120d3565b5b8135612212848260208601612184565b91505092915050565b600080fd5b600067ffffffffffffffff82111561223b5761223a6120d8565b5b6122448261203d565b9050602081019050919050565b82818337600083830152505050565b600061227361226e84612220565b612138565b90508281526020810184848401111561228f5761228e61221b565b5b61229a848285612251565b509392505050565b600082601f8301126122b7576122b66120d3565b5b81356122c7848260208601612260565b91505092915050565b600080600080600060a086880312156122ec576122eb611e07565b5b60006122fa88828901611e5a565b955050602061230b88828901611e5a565b945050604086013567ffffffffffffffff81111561232c5761232b611e0c565b5b612338888289016121ed565b935050606086013567ffffffffffffffff81111561235957612358611e0c565b5b612365888289016121ed565b925050608086013567ffffffffffffffff81111561238657612385611e0c565b5b612392888289016122a2565b9150509295509295909350565b600067ffffffffffffffff8211156123ba576123b96120d8565b5b602082029050602081019050919050565b60006123de6123d98461239f565b612138565b905080838252602082019050602084028301858111156124015761240061217f565b5b835b8181101561242a57806124168882611e5a565b845260208401935050602081019050612403565b5050509392505050565b600082601f830112612449576124486120d3565b5b81356124598482602086016123cb565b91505092915050565b6000806040838503121561247957612478611e07565b5b600083013567ffffffffffffffff81111561249757612496611e0c565b5b6124a385828601612434565b925050602083013567ffffffffffffffff8111156124c4576124c3611e0c565b5b6124d0858286016121ed565b9150509250929050565b600081519050919050565b600082825260208201905092915050565b6000819050602082019050919050565b61250f81611e6f565b82525050565b60006125218383612506565b60208301905092915050565b6000602082019050919050565b6000612545826124da565b61254f81856124e5565b935061255a836124f6565b8060005b8381101561258b5781516125728882612515565b975061257d8361252d565b92505060018101905061255e565b5085935050505092915050565b600060208201905081810360008301526125b2818461253a565b905092915050565b6125c381611f94565b81146125ce57600080fd5b50565b6000813590506125e0816125ba565b92915050565b600080604083850312156125fd576125fc611e07565b5b600061260b85828601611e5a565b925050602061261c858286016125d1565b9150509250929050565b600067ffffffffffffffff821115612641576126406120d8565b5b61264a8261203d565b9050602081019050919050565b600061266a61266584612626565b612138565b9050828152602081018484840111156126865761268561221b565b5b612691848285612251565b509392505050565b600082601f8301126126ae576126ad6120d3565b5b81356126be848260208601612657565b91505092915050565b600080600080608085870312156126e1576126e0611e07565b5b60006126ef87828801611e90565b945050602061270087828801611e90565b935050604061271187828801611e5a565b925050606085013567ffffffffffffffff81111561273257612731611e0c565b5b61273e87828801612699565b91505092959194509250565b6000806040838503121561276157612760611e07565b5b600061276f85828601611e5a565b925050602061278085828601611e5a565b9150509250929050565b600080600080600060a086880312156127a6576127a5611e07565b5b60006127b488828901611e5a565b95505060206127c588828901611e5a565b94505060406127d688828901611e90565b93505060606127e788828901611e90565b925050608086013567ffffffffffffffff81111561280857612807611e0c565b5b612814888289016122a2565b9150509295509295909350565b7f455243313135353a2061646472657373207a65726f206973206e6f742061207660008201527f616c6964206f776e657200000000000000000000000000000000000000000000602082015250565b600061287d602a83612002565b915061288882612821565b604082019050919050565b600060208201905081810360008301526128ac81612870565b9050919050565b7f5552493a206e6f6e6578697374616e636520746f6b656e000000000000000000600082015250565b60006128e9601783612002565b91506128f4826128b3565b602082019050919050565b60006020820190508181036000830152612918816128dc565b9050919050565b600081905092915050565b600061293582611ff7565b61293f818561291f565b935061294f818560208601612013565b80840191505092915050565b7f2e6a736f6e000000000000000000000000000000000000000000000000000000600082015250565b600061299160058361291f565b915061299c8261295b565b600582019050919050565b60006129b3828561292a565b91506129bf828461292a565b91506129ca82612984565b91508190509392505050565b7f455243313135353a2063616c6c6572206973206e6f7420746f6b656e206f776e60008201527f6572206f7220617070726f766564000000000000000000000000000000000000602082015250565b6000612a32602e83612002565b9150612a3d826129d6565b604082019050919050565b60006020820190508181036000830152612a6181612a25565b9050919050565b7f455243313135353a206163636f756e747320616e6420696473206c656e67746860008201527f206d69736d617463680000000000000000000000000000000000000000000000602082015250565b6000612ac4602983612002565b9150612acf82612a68565b604082019050919050565b60006020820190508181036000830152612af381612ab7565b9050919050565b7f4e487b7100000000000000000000000000000000000000000000000000000000600052603260045260246000fd5b7f4e487b7100000000000000000000000000000000000000000000000000000000600052601160045260246000fd5b6000612b6382611e6f565b91507fffffffffffffffffffffffffffffffffffffffffffffffffffffffffffffffff8203612b9557612b94612b29565b5b600182019050919050565b600060c082019050612bb56000830189611ee5565b612bc26020830188611ee5565b612bcf60408301876120a9565b612bdc60608301866120a9565b612be96080830185611ee5565b81810360a0830152612bfb818461204e565b9050979650505050505050565b7f4e487b7100000000000000000000000000000000000000000000000000000000600052602260045260246000fd5b60006002820490506001821680612c4f57607f821691505b602082108103612c6257612c61612c08565b5b50919050565b7f4e487b7100000000000000000000000000000000000000000000000000000000600052601260045260246000fd5b7f455243313135353a2069647320616e6420616d6f756e7473206c656e6774682060008201527f6d69736d61746368000000000000000000000000000000000000000000000000602082015250565b6000612cf3602883612002565b9150612cfe82612c97565b604082019050919050565b60006020820190508181036000830152612d2281612ce6565b9050919050565b7f455243313135353a207472616e7366657220746f20746865207a65726f20616460008201527f6472657373000000000000000000000000000000000000000000000000000000602082015250565b6000612d85602583612002565b9150612d9082612d29565b604082019050919050565b60006020820190508181036000830152612db481612d78565b9050919050565b7f455243313135353a20696e73756666696369656e742062616c616e636520666f60008201527f72207472616e7366657200000000000000000000000000000000000000000000602082015250565b6000612e17602a83612002565b9150612e2282612dbb565b604082019050919050565b60006020820190508181036000830152612e4681612e0a565b9050919050565b6000612e5882611e6f565b9150612e6383611e6f565b9250828201905080821115612e7b57612e7a612b29565b5b92915050565b60006040820190508181036000830152612e9b818561253a565b90508181036020830152612eaf818461253a565b90509392505050565b7f455243313135353a2073657474696e6720617070726f76616c2073746174757360008201527f20666f722073656c660000000000000000000000000000000000000000000000602082015250565b6000612f14602983612002565b9150612f1f82612eb8565b604082019050919050565b60006020820190508181036000830152612f4381612f07565b9050919050565b7f455243313135353a206d696e7420746f20746865207a65726f2061646472657360008201527f7300000000000000000000000000000000000000000000000000000000000000602082015250565b6000612fa6602183612002565b9150612fb182612f4a565b604082019050919050565b60006020820190508181036000830152612fd581612f99565b9050919050565b6000604082019050612ff16000830185611ee5565b612ffe6020830184611ee5565b9392505050565b7f455243313135353a206275726e20616d6f756e74206578636565647320746f7460008201527f616c537570706c79000000000000000000000000000000000000000000000000602082015250565b6000613061602883612002565b915061306c82613005565b604082019050919050565b6000602082019050818103600083015261309081613054565b9050919050565b600081519050919050565b600082825260208201905092915050565b60006130be82613097565b6130c881856130a2565b93506130d8818560208601612013565b6130e18161203d565b840191505092915050565b600060a08201905061310160008301886120a9565b61310e60208301876120a9565b8181036040830152613120818661253a565b90508181036060830152613134818561253a565b9050818103608083015261314881846130b3565b90509695505050505050565b60008151905061316381611f3b565b92915050565b60006020828403121561317f5761317e611e07565b5b600061318d84828501613154565b91505092915050565b60008160e01c9050919050565b600060033d11156131c25760046000803e6131bf600051613196565b90505b90565b600060443d10613252576131d7611dfd565b60043d036004823e80513d602482011167ffffffffffffffff821117156131ff575050613252565b808201805167ffffffffffffffff81111561321d5750505050613252565b80602083010160043d03850181111561323a575050505050613252565b61324982602001850186612107565b82955050505050505b90565b7f455243313135353a207472616e7366657220746f206e6f6e2d4552433131353560008201527f526563656976657220696d706c656d656e746572000000000000000000000000602082015250565b60006132b1603483612002565b91506132bc82613255565b604082019050919050565b600060208201905081810360008301526132e0816132a4565b9050919050565b7f455243313135353a204552433131353552656365697665722072656a6563746560008201527f6420746f6b656e73000000000000000000000000000000000000000000000000602082015250565b6000613343602883612002565b915061334e826132e7565b604082019050919050565b6000602082019050818103600083015261337281613336565b9050919050565b600060a08201905061338e60008301886120a9565b61339b60208301876120a9565b6133a86040830186611ee5565b6133b56060830185611ee5565b81810360808301526133c781846130b3565b9050969550505050505056fea264697066735822122017dba69c7db580fc7790594c22554b1ed1b06950f5d2895a496d2348a8608caf64736f6c6343000812003368747470733a2f2f697066732e696f2f697066732f516d6344525777584345314c6a766445534e5a736d6337357379544a50327a4138575739534845614377456d6b632f",
  "linkReferences": {},
  "deployedLinkReferences": {}
}